:020000040000FA
:100000000C945D000C9485000C9485000C94850084
:100010000C9485000C9485000C9485000C9485004C
:100020000C9485000C9485000C9485000C9485003C
:100030000C9485000C9485000C9485000C9485002C
:100040000C94FC020C9485000C9485000C948500A3
:100050000C9485000C9485000C9485000C9485000C
:100060000C9485000C94850000000008000201003B
:100070000003040700000000000000000000000072
:10008000250028002B0000000000240027002A0083
:10009000040404040404040402020202020203032E
:1000A0000303030301020408102040800102040836
:1000B0001020010204081020460311241FBECFEFB8
:1000C000D8E0DEBFCDBF21E0A2E2B1E001C01D92C9
:1000D000A633B207E1F711E0A0E0B1E0EAEAFCE004
:1000E00002C005900D92A232B107D9F710E0CDE51C
:1000F000D0E004C02197FE010E944C04CC35D1070A
:10010000C9F70E9472030C9453060C94000090E00F
:10011000FC01EC55FF4F249180579F4FFC018491C7
:10012000882399F090E0880F991FFC01EA57FF4F50
:10013000A591B491FC01E458FF4F859194918FB73C
:10014000F894EC91E22BEC938FBF089591E090939B
:100150002B01813409F451C0823409F451C0833435
:1001600009F451C0843409F451C0853409F451C0F4
:10017000863409F451C0873409F451C0883409F435
:1001800051C0893409F451C08A3409F451C08B3408
:1001900009F451C08C3409F451C08D3409F451C0B4
:1001A0008E3409F451C08F3409F451C0803509F4FC
:1001B00051C0813509F451C0823509F451C08335ED
:1001C00009F451C0843509F451C0853509F451C092
:1001D000863509F451C0873509F451C0883509F4D2
:1001E00051C0893509F451C08A3509F451C08032B3
:1001F00009F451C010922B0108958CE897E40895FA
:100200008CE296E9089584E890EC08958CE294E9F4
:10021000089584E893EC089584E893E4089584E8CD
:1002200096EC089588E897E4089584E290E90895AB
:1002300088E094EC089580E999E4089580E890ECD2
:10024000089588ED94E5089588EC9CE408958CE881
:1002500094EC08958CE893E408958CE89CEC089560
:100260008CE89BE4089584E897E8089584E290E19F
:10027000089588E894EC089580E990E6089588EA66
:100280009CE6089580E598E2089580E590E1089560
:1002900084E193EA089590E080E0089590E0FC0105
:1002A000E859FF4F2491FC01EC55FF4F3491FC01BC
:1002B000E057FF4FE491EE23C9F0222339F02330B9
:1002C00001F1A8F4213019F1223029F1F0E0EE0F0C
:1002D000FF1FE458FF4FA591B4918FB7F894EC91AC
:1002E000611126C030953E233C938FBF089527307F
:1002F000A9F02830C9F0243049F7809180008F7D23
:1003000003C0809180008F7780938000DFCF84B519
:100310008F7784BDDBCF84B58F7DFBCF8091B0001C
:100320008F778093B000D2CF8091B0008F7DF9CFCE
:100330003E2BDACF3FB7F8948091270190912801A6
:10034000A0912901B0912A0126B5A89B05C02F3F95
:1003500019F00196A11DB11D3FBFBA2FA92F982FEB
:100360008827BC01CD01620F711D811D911D42E0E6
:10037000660F771F881F991F4A95D1F708958F92AE
:100380009F92AF92BF92CF92DF92EF92FF924B017A
:100390005C010E949A016B017C010E949A016C1918
:1003A0007D098E099F09683E734081059105A8F378
:1003B00021E0821A9108A108B10888EEC80E83E0F6
:1003C000D81EE11CF11C81149104A104B10429F789
:1003D000FF90EF90DF90CF90BF90AF909F908F9065
:1003E0000895BF92CF92DF92EF92FF920F931F93E7
:1003F000CF93DF93E82EB42E10912F01662321F0C6
:1004000061E0812F0E944E0160E0812F0E944E0129
:10041000D0E0C0E080E8C82ED12CF12C0091300152
:1004200060E0802F0E944E01C6010C2E02C09595FF
:1004300087950A94E2F78E219F2161E0892B09F4C8
:1004400060E0809131010E944E0161E0802F0E94A6
:100450004E012196C830D10509F7BB2069F061E053
:10046000812FDF91CF911F910F91FF90EF90DF903F
:10047000CF90BF900C944E01DF91CF911F910F91BF
:10048000FF90EF90DF90CF90BF900895CF9341E021
:1004900060E082E00E94F10140E060E083E00E94C1
:1004A000F10140E061E081EE0E94F101C8E040E02E
:1004B00060E080E00E94F10140E060E080E00E94A6
:1004C000F10140E060E080E00E94F10140E060E086
:1004D00080E00E94F10140E060E080E00E94F101D4
:1004E000C15029F7CF910895CF93C82F41E060E024
:1004F00082E20E94F101EC2FF0E0EA5FFE4F40E063
:1005000060E08081CF910C94F101BF92CF92DF9295
:10051000EF92FF920F931F93CF93DF93CDB7DEB788
:10052000EDB6FEB6FC0104811581602FBB24B394A7
:10053000B00EFCE0FB1510F42CE0B22E4B2D50E079
:100540009A0121503109EDB7FEB7E41BF50B0FB648
:10055000F894FEBF0FBEEDBF4DB75EB74F5F5F4F64
:100560006A016F3FD1F1FA010115110571F02017F1
:10057000310708F48901FC0160817181A801C6017D
:100580000E944406F601E00FF11F108210E01B15D7
:1005900021F11F5F812F0E947402F60101916F010A
:1005A000802F0E94A600892F90912B01992321F082
:1005B00040E060E00E94F101802F0E94A60090912F
:1005C0002B01992321F040E060E00E94F10140E01E
:1005D00061E081EF0E94F101DACF0FB6F894FEBE20
:1005E0000FBEEDBEDF91CF911F910F91FF90EF9065
:1005F000DF90CF90BF9008951F920F920FB60F9289
:1006000011242F933F938F939F93AF93BF93809128
:10061000230190912401A0912501B09126013091F0
:10062000220123E0230F2D3758F50196A11DB11D9E
:10063000209322018093230190932401A09325010C
:10064000B09326018091270190912801A091290162
:10065000B0912A010196A11DB11D809327019093AD
:100660002801A0932901B0932A01BF91AF919F91D6
:100670008F913F912F910F900FBE0F901F90189563
:1006800026E8230F0296A11DB11DD2CF87E08093EB
:10069000310188E08093300189E080932F0180E36D
:1006A00080932E0182E080932D0183E080932C01C2
:1006B00087E00E94870088E00E94870089E00E940E
:1006C000870041E060E080E30E94F10141E060E0EA
:1006D00082E00E94F10140E060E083E00E94F101CD
:1006E0000C944602CF93DF9300D000D000D0CDB75A
:1006F000DEB7789484B5826084BD84B5816084BDA2
:1007000085B5826085BD85B5816085BD80916E00AF
:10071000816080936E0010928100809181008260E0
:10072000809381008091810081608093810080911D
:1007300080008160809380008091B100846080930C
:10074000B1008091B00081608093B00080917A0008
:10075000846080937A0080917A00826080937A002E
:1007600080917A00816080937A0080917A0080681D
:1007700080937A001092C1006AEF70E080E090E010
:100780000E94BF0180E0E82E80E0F82E0DE010E02E
:1007900081E00E9474021A8219821C821B821E82CE
:1007A0001D826EE070E090E080E00E947705009787
:1007B00089F09A8389831C830B832D813E81232BAF
:1007C00011F4FC0110821E830D8363E171E00E942D
:1007D0003D060CC089819A81009711F00E94EE04B9
:1007E0001A8219821E821D821C821B82CE010196F2
:1007F0000E94850289819A81009711F00E94EE047F
:1008000068EE73E080E090E00E94BF010E94460223
:1008100068EE73E080E090E00E94BF01E114F10413
:1008200009F4B6CF0E940000B3CF2F923F924F92AF
:100830005F926F927F928F929F92AF92BF92CF9270
:10084000DF92EF92FF920F931F93CF93DF93CDB779
:10085000DEB7CA1BDB0B0FB6F894DEBF0FBECDBFF1
:1008600009942A88398848885F846E847D848C84C2
:100870009B84AA84B984C884DF80EE80FD800C81CB
:100880001B81AA81B981CE0FD11D0FB6F894DEBFAE
:100890000FBECDBFED010895EE0FFF1F0590F4913F
:1008A000E02D09940F931F93CF93DF93823091052E
:1008B00010F482E090E0E0913401F091350130E0F5
:1008C00020E0B0E0A0E0309799F42115310509F45B
:1008D0004AC0281B390B24303105D8F58A819B8109
:1008E0006115710589F1FB0193838283FE0111C0BB
:1008F000408151810281138148175907E0F0481760
:10090000590799F4109761F012960C931297139669
:100910001C933296CF01DF91CF911F910F910895D3
:100920000093340110933501F4CF2115310551F0B6
:100930004217530738F0A901DB019A01BD01DF011D
:10094000F801C1CFEF01F9CF9093350180933401C5
:10095000CDCFFE01E20FF31F819391932250310915
:1009600039832883D7CF2091320130913301232B53
:1009700041F420910201309103013093330120931F
:10098000320120910001309101012115310541F41E
:100990002DB73EB74091040150910501241B350B42
:1009A000E0913201F0913301E217F307A0F42E1B1E
:1009B0003F0B2817390778F0AC014E5F5F4F2417C3
:1009C000350748F04E0F5F1F5093330140933201BB
:1009D000819391939FCFF0E0E0E09CCFCF93DF93A2
:1009E0000097E9F0FC01329713821282A091340142
:1009F000B0913501ED0130E020E01097A1F42081A5
:100A00003181820F931F20913201309133012817D9
:100A1000390709F061C0F0933301E0933201DF91AF
:100A2000CF910895EA01CE17DF07E8F54A815B818F
:100A30009E0141155105B1F7E901FB83EA83499114
:100A40005991C40FD51FEC17FD0761F48081918186
:100A50000296840F951FE90199838883828193818F
:100A60009B838A83F0E0E0E012968D919C9113972E
:100A70000097B9F52D913C911197CD010296820F07
:100A8000931F20913201309133012817390739F62D
:100A9000309751F51092350110923401B093330123
:100AA000A0933201BCCFD383C28340815181840F94
:100AB000951FC817D90761F44E5F5F4F88819981F0
:100AC000480F591F518340838A819B81938382837E
:100AD0002115310509F0B0CFF0933501E0933401D1
:100AE0009ECFFD01DC01C0CF13821282D7CFB0E0D0
:100AF000A0E0EDE7F5E00C9417048C01009751F4A9
:100B0000CB010E9452048C01C801CDB7DEB7E0E1F1
:100B10000C943304FC01E60FF71F9C0122503109AD
:100B2000E217F30708F49DC0D901CD91DC9111972C
:100B3000C617D70798F0C530D10530F3CE0104971A
:100B40008617970708F3C61BD70B2297C193D1933B
:100B50006D937C93CF010E94EE04D6CF5B01AC1A5B
:100B6000BD0A4C018C0E9D1EA0913401B09135013F
:100B7000512C412CF12CE12C109731F58091320150
:100B8000909133018815990509F05CC04616570607
:100B900008F058C08091000190910101009741F444
:100BA0008DB79EB74091040150910501841B950BB0
:100BB000E817F90708F055C0F0933301E0933201CC
:100BC000F90171836083A0CF8D919C91119712964A
:100BD0006C90129713967C901397A815B90559F548
:100BE0006C0142E0C40ED11CCA14DB0420F1AC013C
:100BF0004A195B09DA011296159780F062827382B6
:100C000051834083D9016D937C93E114F10471F019
:100C1000D7011396FC93EE93129776CF22968C0F02
:100C20009D1FF90191838083F301EFCFF09335018C
:100C3000E093340169CF4816590608F42C017D0170
:100C4000D3019ACFCB010E9452047C01009749F056
:100C5000AE01B8010E943406C8010E94EE0487016B
:100C600053CF10E000E050CFFB01DC0102C0019047
:100C70000D9241505040D8F70895FB01DC010190DE
:100C80000D920020E1F70895FB01DC014150504036
:100C900048F001900D920020C9F701C01D9241500B
:100CA0005040E0F70895F894FFCF0000360180002F
:100CB00027877BDB1BAB4BF3339363C3034544555F
:0C0CC0004152444F20464552524F000064
:107E0000112484B714BE81FFF0D085E080938100F7
:107E100082E08093C00088E18093C10086E0809377
:107E2000C20080E18093C4008EE0C9D0259A86E02C
:107E300020E33CEF91E0309385002093840096BBD3
:107E4000B09BFECF1D9AA8958150A9F7CC24DD24C4
:107E500088248394B5E0AB2EA1E19A2EF3E0BF2EE7
:107E6000A2D0813461F49FD0082FAFD0023811F036
:107E7000013811F484E001C083E08DD089C08234E0
:107E800011F484E103C0853419F485E0A6D080C0E4
:107E9000853579F488D0E82EFF2485D0082F10E0AE
:107EA000102F00270E291F29000F111F8ED06801E7
:107EB0006FC0863521F484E090D080E0DECF843638
:107EC00009F040C070D06FD0082F6DD080E0C81688
:107ED00080E7D80618F4F601B7BEE895C0E0D1E017
:107EE00062D089930C17E1F7F0E0CF16F0E7DF06D8
:107EF00018F0F601B7BEE89568D007B600FCFDCFD4
:107F0000A601A0E0B1E02C9130E011968C91119780
:107F100090E0982F8827822B932B1296FA010C0160
:107F200087BEE89511244E5F5F4FF1E0A038BF0790
:107F300051F7F601A7BEE89507B600FCFDCF97BE46
:107F4000E89526C08437B1F42ED02DD0F82E2BD052
:107F50003CD0F601EF2C8F010F5F1F4F84911BD097
:107F6000EA94F801C1F70894C11CD11CFA94CF0C13
:107F7000D11C0EC0853739F428D08EE10CD085E9AC
:107F80000AD08FE07ACF813511F488E018D01DD067
:107F900080E101D065CF982F8091C00085FFFCCF94
:107FA0009093C60008958091C00087FFFCCF809118
:107FB000C00084FD01C0A8958091C6000895E0E648
:107FC000F0E098E1908380830895EDDF803219F02E
:107FD00088E0F5DFFFCF84E1DECF1F93182FE3DFCA
:107FE0001150E9F7F2DF1F91089580E0E8DFEE27F6
:047FF000FF270994CA
:027FFE00040479
:00000001FF
